:02000000FE2BD5
:1006060083168601831286018C018D0101308312C7
:100616008C0703188D0A00308D070D08803ACF002D
:10062600A7304F02031D192B10300C02031C1C2B84
:100636001D2B092B8030831286008C018D01013021
:1006460083128C0703188D0A00308D070D08803A37
:10065600CF00A7304F02031D322B10300C02031CB3
:10066600352B362B222BC030831286008C018D0150
:10067600013083128C0703188D0A00308D070D0890
:10068600803ACF00A7304F02031D4B2B10300C02CF
:10069600031C4E2B4F2B3B2BE030831286008C0124
:1006A6008D01013083128C0703188D0A00308D07E7
:1006B6000D08803ACF00A7304F02031D642B10307F
:1006C6000C02031C672B682B542BF0308312860018
:1006D6008C018D01013083128C0703188D0A0030BE
:1006E6008D070D08803ACF00A7304F02031D7D2BE2
:1006F60010300C02031C802B812B6D2BF8308312DB
:1007060086008C018D01013083128C0703188D0A37
:1007160000308D070D08803ACF00A7304F02031D29
:10072600962B10300C02031C992B9A2B862BFC302F
:10073600831286008C018D01013083128C07031809
:100746008D0A00308D070D08803ACF00A7304F0282
:10075600031DAF2B10300C02031CB22BB32B9F2BA7
:10076600FE30831286008C018D01013083128C07C6
:1007760003188D0A00308D070D08803ACF00A73088
:100786004F02031DC82B10300C02031CCB2BCC2BA5
:10079600B82BFF30831286008C018D010130831245
:1007A6008C0703188D0A00308D070D08803ACF009C
:1007B600A7304F02031DE12B10300C02031CE42B63
:1007C600E52BD12B83128C018D01013083128C070E
:1007D60003188D0A00308D070D08803ACF0083304C
:1007E6004F02031DF82BE8300C02031CFB2BFC2BDD
:0A07F600E82B052B00288301032BDC
:00000001FF
